{
  "_format": "hh-sol-artifact-1",
  "contractName": "Chest",
  "sourceName": "contracts/Chest/Chest.sol",
  "abi": [
    {
      "inputs": [
        {
          "internalType": "string",
          "name": "name",
          "type": "string"
        },
        {
          "internalType": "string",
          "name": "type_",
          "type": "string"
        }
      ],
      "stateMutability": "nonpayable",
      "type": "constructor"
    },
    {
      "anonymous": false,
      "inputs": [
        {
          "indexed": true,
          "internalType": "address",
          "name": "looter",
          "type": "address"
        },
        {
          "indexed": true,
          "internalType": "address[]",
          "name": "items",
          "type": "address[]"
        },
        {
          "indexed": true,
          "internalType": "uint256[]",
          "name": "tokenIds",
          "type": "uint256[]"
        },
        {
          "indexed": false,
          "internalType": "uint256[]",
          "name": "amounts",
          "type": "uint256[]"
        }
      ],
      "name": "Looted",
      "type": "event"
    },
    {
      "anonymous": false,
      "inputs": [
        {
          "indexed": true,
          "internalType": "address",
          "name": "previousOwner",
          "type": "address"
        },
        {
          "indexed": true,
          "internalType": "address",
          "name": "newOwner",
          "type": "address"
        }
      ],
      "name": "OwnershipTransferred",
      "type": "event"
    },
    {
      "inputs": [
        {
          "internalType": "address[]",
          "name": "tokens",
          "type": "address[]"
        }
      ],
      "name": "addWhitelist",
      "outputs": [],
      "stateMutability": "nonpayable",
      "type": "function"
    },
    {
      "inputs": [
        {
          "internalType": "address[]",
          "name": "items",
          "type": "address[]"
        },
        {
          "internalType": "uint256[]",
          "name": "tokenIds",
          "type": "uint256[]"
        },
        {
          "internalType": "uint256[]",
          "name": "amounts",
          "type": "uint256[]"
        }
      ],
      "name": "batchDeposit",
      "outputs": [
        {
          "internalType": "bool",
          "name": "success",
          "type": "bool"
        }
      ],
      "stateMutability": "nonpayable",
      "type": "function"
    },
    {
      "inputs": [
        {
          "internalType": "address[]",
          "name": "items",
          "type": "address[]"
        },
        {
          "internalType": "uint256[]",
          "name": "tokenIds",
          "type": "uint256[]"
        },
        {
          "internalType": "uint256[]",
          "name": "amounts",
          "type": "uint256[]"
        }
      ],
      "name": "batchLoot",
      "outputs": [
        {
          "internalType": "address[]",
          "name": "items_",
          "type": "address[]"
        },
        {
          "internalType": "uint256[]",
          "name": "tokenIds_",
          "type": "uint256[]"
        },
        {
          "internalType": "uint256[]",
          "name": "amounts_",
          "type": "uint256[]"
        },
        {
          "internalType": "uint8[]",
          "name": "type_",
          "type": "uint8[]"
        }
      ],
      "stateMutability": "nonpayable",
      "type": "function"
    },
    {
      "inputs": [],
      "name": "chest",
      "outputs": [
        {
          "components": [
            {
              "internalType": "uint256",
              "name": "_value",
              "type": "uint256"
            }
          ],
          "internalType": "struct Counters.Counter",
          "name": "opennedCounter",
          "type": "tuple"
        },
        {
          "internalType": "uint256",
          "name": "lastTimeOpenned",
          "type": "uint256"
        },
        {
          "internalType": "address",
          "name": "creator",
          "type": "address"
        },
        {
          "internalType": "string",
          "name": "name",
          "type": "string"
        },
        {
          "internalType": "string",
          "name": "type_",
          "type": "string"
        }
      ],
      "stateMutability": "view",
      "type": "function"
    },
    {
      "inputs": [
        {
          "internalType": "address",
          "name": "",
          "type": "address"
        },
        {
          "internalType": "uint256",
          "name": "",
          "type": "uint256"
        }
      ],
      "name": "isInside",
      "outputs": [
        {
          "internalType": "bool",
          "name": "",
          "type": "bool"
        }
      ],
      "stateMutability": "view",
      "type": "function"
    },
    {
      "inputs": [],
      "name": "look",
      "outputs": [
        {
          "internalType": "address[]",
          "name": "items",
          "type": "address[]"
        },
        {
          "internalType": "uint256[]",
          "name": "tokenIds",
          "type": "uint256[]"
        },
        {
          "internalType": "uint256[]",
          "name": "amounts",
          "type": "uint256[]"
        },
        {
          "internalType": "uint8[]",
          "name": "type_",
          "type": "uint8[]"
        }
      ],
      "stateMutability": "view",
      "type": "function"
    },
    {
      "inputs": [
        {
          "internalType": "address",
          "name": "item",
          "type": "address"
        },
        {
          "internalType": "uint256",
          "name": "tokenId",
          "type": "uint256"
        },
        {
          "internalType": "uint256",
          "name": "amount",
          "type": "uint256"
        }
      ],
      "name": "loot",
      "outputs": [
        {
          "internalType": "address[]",
          "name": "items",
          "type": "address[]"
        },
        {
          "internalType": "uint256[]",
          "name": "tokenIds",
          "type": "uint256[]"
        },
        {
          "internalType": "uint256[]",
          "name": "amounts",
          "type": "uint256[]"
        },
        {
          "internalType": "uint8[]",
          "name": "type_",
          "type": "uint8[]"
        }
      ],
      "stateMutability": "nonpayable",
      "type": "function"
    },
    {
      "inputs": [
        {
          "internalType": "address",
          "name": "operator",
          "type": "address"
        },
        {
          "internalType": "address",
          "name": "from",
          "type": "address"
        },
        {
          "internalType": "uint256[]",
          "name": "ids",
          "type": "uint256[]"
        },
        {
          "internalType": "uint256[]",
          "name": "values",
          "type": "uint256[]"
        },
        {
          "internalType": "bytes",
          "name": "data",
          "type": "bytes"
        }
      ],
      "name": "onERC1155BatchReceived",
      "outputs": [
        {
          "internalType": "bytes4",
          "name": "",
          "type": "bytes4"
        }
      ],
      "stateMutability": "nonpayable",
      "type": "function"
    },
    {
      "inputs": [
        {
          "internalType": "address",
          "name": "operator",
          "type": "address"
        },
        {
          "internalType": "address",
          "name": "from",
          "type": "address"
        },
        {
          "internalType": "uint256",
          "name": "id",
          "type": "uint256"
        },
        {
          "internalType": "uint256",
          "name": "value",
          "type": "uint256"
        },
        {
          "internalType": "bytes",
          "name": "data",
          "type": "bytes"
        }
      ],
      "name": "onERC1155Received",
      "outputs": [
        {
          "internalType": "bytes4",
          "name": "",
          "type": "bytes4"
        }
      ],
      "stateMutability": "nonpayable",
      "type": "function"
    },
    {
      "inputs": [
        {
          "internalType": "address",
          "name": "operator",
          "type": "address"
        },
        {
          "internalType": "address",
          "name": "from",
          "type": "address"
        },
        {
          "internalType": "uint256",
          "name": "value",
          "type": "uint256"
        },
        {
          "internalType": "address",
          "name": "token",
          "type": "address"
        }
      ],
      "name": "onERC20Received",
      "outputs": [
        {
          "internalType": "bytes4",
          "name": "",
          "type": "bytes4"
        }
      ],
      "stateMutability": "nonpayable",
      "type": "function"
    },
    {
      "inputs": [
        {
          "internalType": "address",
          "name": "operator",
          "type": "address"
        },
        {
          "internalType": "address",
          "name": "from",
          "type": "address"
        },
        {
          "internalType": "uint256",
          "name": "tokenId",
          "type": "uint256"
        },
        {
          "internalType": "bytes",
          "name": "data",
          "type": "bytes"
        }
      ],
      "name": "onERC721Received",
      "outputs": [
        {
          "internalType": "bytes4",
          "name": "",
          "type": "bytes4"
        }
      ],
      "stateMutability": "nonpayable",
      "type": "function"
    },
    {
      "inputs": [],
      "name": "owner",
      "outputs": [
        {
          "internalType": "address",
          "name": "",
          "type": "address"
        }
      ],
      "stateMutability": "view",
      "type": "function"
    },
    {
      "inputs": [
        {
          "internalType": "address[]",
          "name": "tokens",
          "type": "address[]"
        }
      ],
      "name": "removeWhiteList",
      "outputs": [],
      "stateMutability": "nonpayable",
      "type": "function"
    },
    {
      "inputs": [],
      "name": "renounceOwnership",
      "outputs": [],
      "stateMutability": "nonpayable",
      "type": "function"
    },
    {
      "inputs": [
        {
          "internalType": "bytes4",
          "name": "interfaceId",
          "type": "bytes4"
        }
      ],
      "name": "supportsInterface",
      "outputs": [
        {
          "internalType": "bool",
          "name": "",
          "type": "bool"
        }
      ],
      "stateMutability": "pure",
      "type": "function"
    },
    {
      "inputs": [],
      "name": "switchLock",
      "outputs": [],
      "stateMutability": "nonpayable",
      "type": "function"
    },
    {
      "inputs": [
        {
          "internalType": "address",
          "name": "",
          "type": "address"
        }
      ],
      "name": "tokenType",
      "outputs": [
        {
          "internalType": "enum ChestHolder.Token",
          "name": "",
          "type": "uint8"
        }
      ],
      "stateMutability": "view",
      "type": "function"
    },
    {
      "inputs": [
        {
          "internalType": "address",
          "name": "",
          "type": "address"
        }
      ],
      "name": "tokenWhiteListed",
      "outputs": [
        {
          "internalType": "bool",
          "name": "",
          "type": "bool"
        }
      ],
      "stateMutability": "view",
      "type": "function"
    },
    {
      "inputs": [
        {
          "internalType": "address",
          "name": "newOwner",
          "type": "address"
        }
      ],
      "name": "transferOwnership",
      "outputs": [],
      "stateMutability": "nonpayable",
      "type": "function"
    }
  ],
  "bytecode": "0x60806040523480156200001157600080fd5b5060405162003c8138038062003c8183398101604081905262000034916200024d565b6200003f336200008a565b600160085581516200005990600c906020850190620000da565b5080516200006f90600d906020840190620000da565b5050600b80546001600160a01b0319163317905550620002f4565b600080546001600160a01b038381166001600160a01b0319831681178455604051919092169283917f8be0079c531659141344cd1fd0a4f28419497f9722a3daafe3b4186f6b6457e09190a35050565b828054620000e890620002b7565b90600052602060002090601f0160209004810192826200010c576000855562000157565b82601f106200012757805160ff191683800117855562000157565b8280016001018555821562000157579182015b82811115620001575782518255916020019190600101906200013a565b506200016592915062000169565b5090565b5b808211156200016557600081556001016200016a565b634e487b7160e01b600052604160045260246000fd5b600082601f830112620001a857600080fd5b81516001600160401b0380821115620001c557620001c562000180565b604051601f8301601f19908116603f01168101908282118183101715620001f057620001f062000180565b816040528381526020925086838588010111156200020d57600080fd5b600091505b8382101562000231578582018301518183018401529082019062000212565b83821115620002435760008385830101525b9695505050505050565b600080604083850312156200026157600080fd5b82516001600160401b03808211156200027957600080fd5b620002878683870162000196565b935060208501519150808211156200029e57600080fd5b50620002ad8582860162000196565b9150509250929050565b600181811c90821680620002cc57607f821691505b60208210811415620002ee57634e487b7160e01b600052602260045260246000fd5b50919050565b61397d80620003046000396000f3fe608060405234801561001057600080fd5b50600436106101215760003560e01c80636c050eae116100ad578063c00dc40211610071578063c00dc402146102a6578063edac985b146102c9578063f23a6e61146102dc578063f2fde38b146102ef578063f47f4e381461030257600080fd5b80636c050eae1461023a578063715018a6146102425780638da5cb5b1461024a578063b6bc4bad14610265578063bc197c811461029357600080fd5b8063442c1a06116100f4578063442c1a06146101b35780635174210d146101e357806362e9fa2c146101f657806364026ac0146101fe5780636865aece1461021757600080fd5b806301ffc9a71461012657806307851be81461015f578063150b7a0214610172578063397457911461019e575b600080fd5b61014a610134366004612cef565b6001600160e01b031916630f79af5b60e41b1490565b60405190151581526020015b60405180910390f35b61014a61016d366004612e66565b610315565b610185610180366004612eed565b610771565b6040516001600160e01b03199091168152602001610156565b6101b16101ac366004612fac565b6108ea565b005b6101d66101c1366004612fe0565b60076020526000908152604090205460ff1681565b6040516101569190613011565b6101856101f1366004613039565b610955565b6101b1610af1565b610206610b1a565b6040516101569594939291906130de565b61022a61022536600461312a565b610c5d565b6040516101569493929190613198565b61022a6111c6565b6101b16114cf565b6000546040516001600160a01b039091168152602001610156565b61014a610273366004613249565b600260209081526000928352604080842090915290825290205460ff1681565b6101856102a13660046132ff565b6114e3565b61014a6102b4366004612fe0565b60016020526000908152604090205460ff1681565b6101b16102d7366004612fac565b61175b565b6101856102ea3660046133b9565b6119fd565b6101b16102fd366004612fe0565b611b78565b61022a610310366004612e66565b611bf1565b600061031f612413565b600054600160a01b900460ff16156103525760405162461bcd60e51b815260040161034990613430565b60405180910390fd5b82518451148015610364575081518451145b6103d65760405162461bcd60e51b815260206004820152603c60248201527f43686573743a206c656e677468206f66206974656d7320616e6420696473206160448201527f6e6420616d6f756e747320617265206e6f74207468652073616d652e000000006064820152608401610349565b60005b8451811015610766576001600760008784815181106103fa576103fa613467565b6020908102919091018101516001600160a01b031682528101919091526040016000205460ff16600381111561043257610432612ffb565b14156105315784818151811061044a5761044a613467565b60200260200101516001600160a01b03166323b872dd333086858151811061047457610474613467565b60200260200101516040518463ffffffff1660e01b815260040161049a9392919061347d565b602060405180830381600087803b1580156104b457600080fd5b505af11580156104c8573d6000803e3d6000fd5b505050506040513d601f19601f820116820180604052508101906104ec91906134a1565b5061052b303385848151811061050457610504613467565b602002602001015188858151811061051e5761051e613467565b6020026020010151610955565b50610754565b60026007600087848151811061054957610549613467565b6020908102919091018101516001600160a01b031682528101919091526040016000205460ff16600381111561058157610581612ffb565b14156106205784818151811061059957610599613467565b60200260200101516001600160a01b03166342842e0e33308785815181106105c3576105c3613467565b60200260200101516040518463ffffffff1660e01b81526004016105e99392919061347d565b600060405180830381600087803b15801561060357600080fd5b505af1158015610617573d6000803e3d6000fd5b50505050610754565b60036007600087848151811061063857610638613467565b6020908102919091018101516001600160a01b031682528101919091526040016000205460ff16600381111561067057610670612ffb565b14156106f35784818151811061068857610688613467565b60200260200101516001600160a01b031663f242432a33308785815181106106b2576106b2613467565b60200260200101518786815181106106cc576106cc613467565b60200260200101516040518563ffffffff1660e01b81526004016105e994939291906134c3565b61071e85828151811061070857610708613467565b60200260200101516001600160a01b031661246d565b60405160200161072e9190613536565b60408051601f198184030181529082905262461bcd60e51b82526103499160040161356c565b8061075e81613595565b9150506103d9565b506001949350505050565b33600090815260016020819052604082205460ff161515146108095760405162461bcd60e51b8152602060048201526044602482018190527f6f6e524337323152656365697665643a20546f6b656e206973206e6f74207768908201527f697465206c697374656420746f2062652073746f72656420696e2074686520636064820152631a195cdd60e21b608482015260a401610349565b33600090815260026020908152604080832086845290915290205460ff166108a957336000818152600560209081526040808320600380548552908352818420889055805485855260048452828520898652845282852081905560018082019092556000805160206139288339815191520180546001600160a01b03191686179055938352600282528083208784529091529020805460ff191690911790555b33600090815260066020908152604080832086845290915281208054600192906108d49084906135b0565b90915550630a85bd0160e11b9695505050505050565b6108f2612413565b60005b8151811015610951576001600083838151811061091457610914613467565b6020908102919091018101516001600160a01b03168252810191909152604001600020805460ff191690558061094981613595565b9150506108f5565b5050565b6001600160a01b038116600090815260016020819052604082205460ff161515146109f65760405162461bcd60e51b8152602060048201526044602482018190527f6f6e455243323052656365697665643a20546f6b656e206973206e6f74207768908201527f697465206c697374656420746f2062652073746f72656420696e2074686520636064820152631a195cdd60e21b608482015260a401610349565b6001600160a01b038216600090815260026020908152604080832083805290915290205460ff16610aa8576001600160a01b0382166000818152600560209081526040808320600380548552908352818420849055805485855260048452828520858052845282852081905560018082019092556000805160206139288339815191520180546001600160a01b03191686179055938352600282528083208380529091529020805460ff191690911790555b6001600160a01b038216600090815260066020908152604080832083805290915281208054859290610adb9084906135b0565b90915550635174210d60e01b9695505050505050565b610af9612413565b6000805460ff60a01b198116600160a01b9182900460ff1615909102179055565b6040805160208101909152600980548252600a54600b54600c805492936001600160a01b0390921692610b4c906135c8565b80601f0160208091040260200160405190810160405280929190818152602001828054610b78906135c8565b8015610bc55780601f10610b9a57610100808354040283529160200191610bc5565b820191906000526020600020905b815481529060010190602001808311610ba857829003601f168201915b505050505090806004018054610bda906135c8565b80601f0160208091040260200160405190810160405280929190818152602001828054610c06906135c8565b8015610c535780601f10610c2857610100808354040283529160200191610c53565b820191906000526020600020905b815481529060010190602001808311610c3657829003601f168201915b5050505050905085565b60608060608060026008541415610cb65760405162461bcd60e51b815260206004820152601f60248201527f5265656e7472616e637947756172643a207265656e7472616e742063616c6c006044820152606401610349565b6002600855600054600160a01b900460ff1615610ce55760405162461bcd60e51b815260040161034990613430565b6001600160a01b038716600090815260026020908152604080832089845290915290205460ff16610d585760405162461bcd60e51b815260206004820152601e60248201527f6c6f6f743a206974656d206973206e6f7420696e2074686520636865737400006044820152606401610349565b6001600160a01b0387166000908152600660209081526040808320898452909152902054851115610df15760405162461bcd60e51b815260206004820152603760248201527f6c6f6f743a20616d6f756e742065786365656420746865207175616e7469747960448201527f20617661696c61626c6520696e207468652063686573740000000000000000006064820152608401610349565b604080516001808252818301909252906020808301908036833750506040805160018082528183019092529296509050602080830190803683375050604080516001808252818301909252929550905060208083019080368337505060408051600180825281830190925292945090506020808301908036833701905050905060016001600160a01b03881660009081526007602052604090205460ff166003811115610ea057610ea0612ffb565b1415610f2c5760405163a9059cbb60e01b8152336004820152602481018690526001600160a01b0388169063a9059cbb90604401602060405180830381600087803b158015610eee57600080fd5b505af1158015610f02573d6000803e3d6000fd5b505050506040513d601f19601f82011682018060405250810190610f2691906134a1565b50611062565b60026001600160a01b03881660009081526007602052604090205460ff166003811115610f5b57610f5b612ffb565b1415610fc857604051632142170760e11b81526001600160a01b038816906342842e0e90610f9190309033908b9060040161347d565b600060405180830381600087803b158015610fab57600080fd5b505af1158015610fbf573d6000803e3d6000fd5b50505050611062565b60036001600160a01b03881660009081526007602052604090205460ff166003811115610ff757610ff7612ffb565b141561106257604051637921219560e11b81526001600160a01b0388169063f242432a9061102f90309033908b908b906004016134c3565b600060405180830381600087803b15801561104957600080fd5b505af115801561105d573d6000803e3d6000fd5b505050505b868460008151811061107657611076613467565b60200260200101906001600160a01b031690816001600160a01b03168152505085836000815181106110aa576110aa613467565b60200260200101818152505084826000815181106110ca576110ca613467565b6020908102919091018101919091526001600160a01b03881660009081526007909152604090205460ff16600381111561110657611106612ffb565b8160008151811061111957611119613467565b60ff90921660209283029190910190910152611139600980546001019055565b42600a5560405161114b908490613603565b6040518091039020846040516111619190613639565b6040518091039020336001600160a01b03167fd81a7f7a98aca3ae014d6b2068fd2e7872b0be51de245314744074a89813822a856040516111a2919061366c565b60405180910390a46111b5848484612489565b600160088190555093509350935093565b6060806060806003805490506001600160401b038111156111e9576111e9612d19565b604051908082528060200260200182016040528015611212578160200160208202803683370190505b506003549094506001600160401b0381111561123057611230612d19565b604051908082528060200260200182016040528015611259578160200160208202803683370190505b506003549093506001600160401b0381111561127757611277612d19565b6040519080825280602002602001820160405280156112a0578160200160208202803683370190505b506003549092506001600160401b038111156112be576112be612d19565b6040519080825280602002602001820160405280156112e7578160200160208202803683370190505b50600380546040805160208084028201810190925282815293945083018282801561133b57602002820191906000526020600020905b81546001600160a01b0316815260019091019060200180831161131d575b5050505050935060005b6003548110156114c8576005600086838151811061136557611365613467565b60200260200101516001600160a01b03166001600160a01b031681526020019081526020016000206000828152602001908152602001600020548482815181106113b1576113b1613467565b602002602001018181525050600660008683815181106113d3576113d3613467565b60200260200101516001600160a01b03166001600160a01b03168152602001908152602001600020600085838151811061140f5761140f613467565b602002602001015181526020019081526020016000205483828151811061143857611438613467565b6020026020010181815250506007600086838151811061145a5761145a613467565b6020908102919091018101516001600160a01b031682528101919091526040016000205460ff16600381111561149257611492612ffb565b8282815181106114a4576114a4613467565b60ff90921660209283029190910190910152806114c081613595565b915050611345565b5090919293565b6114d7612413565b6114e160006128b5565b565b33600090815260016020819052604082205460ff161515146115815760405162461bcd60e51b815260206004820152604b60248201527f6f6e45524331313535426174636852656365697665643a20546f6b656e20697360448201527f206e6f74207768697465206c697374656420746f2062652073746f726564206960648201526a1b881d1a194818da195cdd60aa1b608482015260a401610349565b60005b8681101561174557336000908152600260205260408120908989848181106115ae576115ae613467565b602090810292909201358352508101919091526040016000205460ff166116c9578787828181106115e1576115e1613467565b33600081815260056020908152604080832060038054855290835281842095830297909701359094559454918152600490945290832090929091508a8a8581811061162e5761162e613467565b602090810292909201358352508181019290925260409081016000908120939093556003805460018181019092556000805160206139288339815191520180546001600160a01b0319163390811790915584526002909252822090918a8a8581811061169c5761169c613467565b90506020020135815260200190815260200160002060006101000a81548160ff0219169083151502179055505b8585828181106116db576116db613467565b336000908152600660209081526040822092029390930135929091508a8a8581811061170957611709613467565b905060200201358152602001908152602001600020600082825461172d91906135b0565b9091555081905061173d81613595565b915050611584565b5063f23a6e6160e01b9998505050505050505050565b611763612413565b60005b81518110156109515781818151811061178157611781613467565b60200260200101516001600160a01b03163b600014156117c0576117b082828151811061070857610708613467565b60405160200161072e919061367f565b6117e28282815181106117d5576117d5613467565b6020026020010151612905565b1561189c5760018060008484815181106117fe576117fe613467565b60200260200101516001600160a01b03166001600160a01b0316815260200190815260200160002060006101000a81548160ff02191690831515021790555060016007600084848151811061185557611855613467565b6020908102919091018101516001600160a01b03168252810191909152604001600020805460ff1916600183600381111561189257611892612ffb565b02179055506119eb565b6118be8282815181106118b1576118b1613467565b602002602001015161298c565b156119315760018060008484815181106118da576118da613467565b60200260200101516001600160a01b03166001600160a01b0316815260200190815260200160002060006101000a81548160ff02191690831515021790555060026007600084848151811061185557611855613467565b61195382828151811061194657611946613467565b6020026020010151612a12565b156119c657600180600084848151811061196f5761196f613467565b60200260200101516001600160a01b03166001600160a01b0316815260200190815260200160002060006101000a81548160ff02191690831515021790555060036007600084848151811061185557611855613467565b6119db82828151811061070857610708613467565b60405160200161072e91906136e1565b806119f581613595565b915050611766565b33600090815260016020819052604082205460ff16151514611a965760405162461bcd60e51b815260206004820152604660248201527f6f6e4552433131353552656365697665643a20546f6b656e206973206e6f742060448201527f7768697465206c697374656420746f2062652073746f72656420696e207468656064820152650818da195cdd60d21b608482015260a401610349565b33600090815260026020908152604080832088845290915290205460ff16611b36573360008181526005602090815260408083206003805485529083528184208a90558054858552600484528285208b8652845282852081905560018082019092556000805160206139288339815191520180546001600160a01b03191686179055938352600282528083208984529091529020805460ff191690911790555b33600090815260066020908152604080832088845290915281208054869290611b609084906135b0565b9091555063f23a6e6160e01b98975050505050505050565b611b80612413565b6001600160a01b038116611be55760405162461bcd60e51b815260206004820152602660248201527f4f776e61626c653a206e6577206f776e657220697320746865207a65726f206160448201526564647265737360d01b6064820152608401610349565b611bee816128b5565b50565b60608060608060026008541415611c4a5760405162461bcd60e51b815260206004820152601f60248201527f5265656e7472616e637947756172643a207265656e7472616e742063616c6c006044820152606401610349565b6002600855600054600160a01b900460ff1615611c795760405162461bcd60e51b815260040161034990613430565b85518751148015611c8b575084518751145b611d095760405162461bcd60e51b815260206004820152604360248201527f62617463684465706f7369743a206c656e677468206f66206974656d7320616e60448201527f642069647320616e6420616d6f756e747320617265206e6f742074686520736160648201526236b29760e91b608482015260a401610349565b86516001600160401b03811115611d2257611d22612d19565b604051908082528060200260200182016040528015611d4b578160200160208202803683370190505b50935086516001600160401b03811115611d6757611d67612d19565b604051908082528060200260200182016040528015611d90578160200160208202803683370190505b50925086516001600160401b03811115611dac57611dac612d19565b604051908082528060200260200182016040528015611dd5578160200160208202803683370190505b50915086516001600160401b03811115611df157611df1612d19565b604051908082528060200260200182016040528015611e1a578160200160208202803683370190505b50905060005b87518110156124045760026000898381518110611e3f57611e3f613467565b60200260200101516001600160a01b03166001600160a01b031681526020019081526020016000206000888381518110611e7b57611e7b613467565b6020026020010151815260200190815260200160002060009054906101000a900460ff16611eb489838151811061070857610708613467565b611ed6898481518110611ec957611ec9613467565b6020026020010151612a48565b604051602001611ee792919061375f565b60405160208183030381529060405290611f145760405162461bcd60e51b8152600401610349919061356c565b50858181518110611f2757611f27613467565b6020026020010151600660008a8481518110611f4557611f45613467565b60200260200101516001600160a01b03166001600160a01b031681526020019081526020016000206000898481518110611f8157611f81613467565b60200260200101518152602001908152602001600020541015611faf89838151811061070857610708613467565b611fc4898481518110611ec957611ec9613467565b604051602001611fd59291906137c2565b604051602081830303815290604052906120025760405162461bcd60e51b8152600401610349919061356c565b506001600760008a848151811061201b5761201b613467565b6020908102919091018101516001600160a01b031682528101919091526040016000205460ff16600381111561205357612053612ffb565b14156121255787818151811061206b5761206b613467565b60200260200101516001600160a01b031663a9059cbb3388848151811061209457612094613467565b60200260200101516040518363ffffffff1660e01b81526004016120cd9291906001600160a01b03929092168252602082015260400190565b602060405180830381600087803b1580156120e757600080fd5b505af11580156120fb573d6000803e3d6000fd5b505050506040513d601f19601f8201168201806040525081019061211f91906134a1565b506122c4565b6002600760008a848151811061213d5761213d613467565b6020908102919091018101516001600160a01b031682528101919091526040016000205460ff16600381111561217557612175612ffb565b14156122145787818151811061218d5761218d613467565b60200260200101516001600160a01b03166342842e0e30338a85815181106121b7576121b7613467565b60200260200101516040518463ffffffff1660e01b81526004016121dd9392919061347d565b600060405180830381600087803b1580156121f757600080fd5b505af115801561220b573d6000803e3d6000fd5b505050506122c4565b87818151811061222657612226613467565b60200260200101516001600160a01b031663f242432a30338a858151811061225057612250613467565b60200260200101518a868151811061226a5761226a613467565b60200260200101516040518563ffffffff1660e01b815260040161229194939291906134c3565b600060405180830381600087803b1580156122ab57600080fd5b505af11580156122bf573d6000803e3d6000fd5b505050505b8781815181106122d6576122d6613467565b60200260200101518582815181106122f0576122f0613467565b60200260200101906001600160a01b031690816001600160a01b03168152505086818151811061232257612322613467565b602002602001015184828151811061233c5761233c613467565b60200260200101818152505085818151811061235a5761235a613467565b602002602001015183828151811061237457612374613467565b6020026020010181815250506007600089838151811061239657612396613467565b6020908102919091018101516001600160a01b031682528101919091526040016000205460ff1660038111156123ce576123ce612ffb565b8282815181106123e0576123e0613467565b60ff90921660209283029190910190910152806123fc81613595565b915050611e20565b50611139600980546001019055565b6000546001600160a01b031633146114e15760405162461bcd60e51b815260206004820181905260248201527f4f776e61626c653a2063616c6c6572206973206e6f7420746865206f776e65726044820152606401610349565b60606124836001600160a01b0383166014612b4d565b92915050565b60005b83518110156128af578181815181106124a7576124a7613467565b6020026020010151600660008684815181106124c5576124c5613467565b60200260200101516001600160a01b03166001600160a01b03168152602001908152602001600020600085848151811061250157612501613467565b60200260200101518152602001908152602001600020546125229190613863565b6128065760006004600086848151811061253e5761253e613467565b60200260200101516001600160a01b03166001600160a01b03168152602001908152602001600020600085848151811061257a5761257a613467565b60200260200101518152602001908152602001600020549050600060016003805490506125a79190613863565b90506000600382815481106125be576125be613467565b60009182526020808320909101546001600160a01b03168083526005825260408084208685529092529120546003805492935090918391908690811061260657612606613467565b600091825260208083209190910180546001600160a01b0319166001600160a01b0394851617905591841680825260048084526040808420868552855280842089905591835260058452818320888452909352812083905589518a908890811061267257612672613467565b60200260200101516001600160a01b03166001600160a01b0316815260200190815260200160002060008887815181106126ae576126ae613467565b6020026020010151815260200190815260200160002060009055600660008987815181106126de576126de613467565b60200260200101516001600160a01b03166001600160a01b03168152602001908152602001600020600088878151811061271a5761271a613467565b60200260200101518152602001908152602001600020600090556002600089878151811061274a5761274a613467565b60200260200101516001600160a01b03166001600160a01b03168152602001908152602001600020600088878151811061278657612786613467565b60209081029190910181015182528181019290925260409081016000908120805460ff191690556001600160a01b03851681526005835281812086825290925281205560038054806127da576127da61387a565b600082815260209020810160001990810180546001600160a01b03191690550190555061289d92505050565b81818151811061281857612818613467565b60200260200101516006600086848151811061283657612836613467565b60200260200101516001600160a01b03166001600160a01b03168152602001908152602001600020600085848151811061287257612872613467565b6020026020010151815260200190815260200160002060008282546128979190613863565b90915550505b806128a781613595565b91505061248c565b50505050565b600080546001600160a01b038381166001600160a01b0319831681178455604051919092169283917f8be0079c531659141344cd1fd0a4f28419497f9722a3daafe3b4186f6b6457e09190a35050565b6000816001600160a01b031663313ce5676040518163ffffffff1660e01b815260040160206040518083038186803b15801561294057600080fd5b505afa925050508015612970575060408051601f3d908101601f1916820190925261296d91810190613890565b60015b61297c57506000919050565b60ff16151592915050565b919050565b6040516301ffc9a760e01b81526380ac58cd60e01b60048201526000906001600160a01b038316906301ffc9a7906024015b60206040518083038186803b1580156129d657600080fd5b505afa925050508015612a06575060408051601f3d908101601f19168201909252612a03918101906134a1565b60015b61248357506000919050565b6040516301ffc9a760e01b8152636cdb3d1360e11b60048201526000906001600160a01b038316906301ffc9a7906024016129be565b606081612a6c5750506040805180820190915260018152600360fc1b602082015290565b8160005b8115612a965780612a8081613595565b9150612a8f9050600a836138c9565b9150612a70565b6000816001600160401b03811115612ab057612ab0612d19565b6040519080825280601f01601f191660200182016040528015612ada576020820181803683370190505b5090505b8415612b4557612aef600183613863565b9150612afc600a866138dd565b612b079060306135b0565b60f81b818381518110612b1c57612b1c613467565b60200101906001600160f81b031916908160001a905350612b3e600a866138c9565b9450612ade565b949350505050565b60606000612b5c8360026138f1565b612b679060026135b0565b6001600160401b03811115612b7e57612b7e612d19565b6040519080825280601f01601f191660200182016040528015612ba8576020820181803683370190505b509050600360fc1b81600081518110612bc357612bc3613467565b60200101906001600160f81b031916908160001a905350600f60fb1b81600181518110612bf257612bf2613467565b60200101906001600160f81b031916908160001a9053506000612c168460026138f1565b612c219060016135b0565b90505b6001811115612c99576f181899199a1a9b1b9c1cb0b131b232b360811b85600f1660108110612c5557612c55613467565b1a60f81b828281518110612c6b57612c6b613467565b60200101906001600160f81b031916908160001a90535060049490941c93612c9281613910565b9050612c24565b508315612ce85760405162461bcd60e51b815260206004820181905260248201527f537472696e67733a20686578206c656e67746820696e73756666696369656e746044820152606401610349565b9392505050565b600060208284031215612d0157600080fd5b81356001600160e01b031981168114612ce857600080fd5b634e487b7160e01b600052604160045260246000fd5b604051601f8201601f191681016001600160401b0381118282101715612d5757612d57612d19565b604052919050565b60006001600160401b03821115612d7857612d78612d19565b5060051b60200190565b80356001600160a01b038116811461298757600080fd5b600082601f830112612daa57600080fd5b81356020612dbf612dba83612d5f565b612d2f565b82815260059290921b84018101918181019086841115612dde57600080fd5b8286015b84811015612e0057612df381612d82565b8352918301918301612de2565b509695505050505050565b600082601f830112612e1c57600080fd5b81356020612e2c612dba83612d5f565b82815260059290921b84018101918181019086841115612e4b57600080fd5b8286015b84811015612e005780358352918301918301612e4f565b600080600060608486031215612e7b57600080fd5b83356001600160401b0380821115612e9257600080fd5b612e9e87838801612d99565b94506020860135915080821115612eb457600080fd5b612ec087838801612e0b565b93506040860135915080821115612ed657600080fd5b50612ee386828701612e0b565b9150509250925092565b60008060008060808587031215612f0357600080fd5b612f0c85612d82565b93506020612f1b818701612d82565b93506040860135925060608601356001600160401b0380821115612f3e57600080fd5b818801915088601f830112612f5257600080fd5b813581811115612f6457612f64612d19565b612f76601f8201601f19168501612d2f565b91508082528984828501011115612f8c57600080fd5b808484018584013760008482840101525080935050505092959194509250565b600060208284031215612fbe57600080fd5b81356001600160401b03811115612fd457600080fd5b612b4584828501612d99565b600060208284031215612ff257600080fd5b612ce882612d82565b634e487b7160e01b600052602160045260246000fd5b602081016004831061303357634e487b7160e01b600052602160045260246000fd5b91905290565b6000806000806080858703121561304f57600080fd5b61305885612d82565b935061306660208601612d82565b92506040850135915061307b60608601612d82565b905092959194509250565b60005b838110156130a1578181015183820152602001613089565b838111156128af5750506000910152565b600081518084526130ca816020860160208601613086565b601f01601f19169290920160200192915050565b8551815284602082015260018060a01b038416604082015260a06060820152600061310c60a08301856130b2565b828103608084015261311e81856130b2565b98975050505050505050565b60008060006060848603121561313f57600080fd5b61314884612d82565b95602085013595506040909401359392505050565b600081518084526020808501945080840160005b8381101561318d57815187529582019590820190600101613171565b509495945050505050565b6080808252855190820181905260009060209060a0840190828901845b828110156131da5781516001600160a01b0316845292840192908401906001016131b5565b505050838103828501526131ee818861315d565b90508381036040850152613202818761315d565b8481036060860152855180825283870192509083019060005b8181101561323a57835160ff168352928401929184019160010161321b565b50909998505050505050505050565b6000806040838503121561325c57600080fd5b61326583612d82565b946020939093013593505050565b60008083601f84011261328557600080fd5b5081356001600160401b0381111561329c57600080fd5b6020830191508360208260051b85010111156132b757600080fd5b9250929050565b60008083601f8401126132d057600080fd5b5081356001600160401b038111156132e757600080fd5b6020830191508360208285010111156132b757600080fd5b60008060008060008060008060a0898b03121561331b57600080fd5b61332489612d82565b975061333260208a01612d82565b965060408901356001600160401b038082111561334e57600080fd5b61335a8c838d01613273565b909850965060608b013591508082111561337357600080fd5b61337f8c838d01613273565b909650945060808b013591508082111561339857600080fd5b506133a58b828c016132be565b999c989b5096995094979396929594505050565b60008060008060008060a087890312156133d257600080fd5b6133db87612d82565b95506133e960208801612d82565b9450604087013593506060870135925060808701356001600160401b0381111561341257600080fd5b61341e89828a016132be565b979a9699509497509295939492505050565b6020808252601d908201527f546869732063686573742069732061637475616c6c79206c6f636b6564000000604082015260600190565b634e487b7160e01b600052603260045260246000fd5b6001600160a01b039384168152919092166020820152604081019190915260600190565b6000602082840312156134b357600080fd5b81518015158114612ce857600080fd5b6001600160a01b0394851681529290931660208301526040820152606081019190915260a06080820181905260009082015260c00190565b7f206973206e6f74207768697465206c697374656420746f20626520696e20746881526834b99031b432b9ba1760b91b602082015260290190565b6c021b432b9ba1d103a37b5b2b71609d1b81526000825161355e81600d850160208701613086565b612b45600d828501016134fb565b602081526000612ce860208301846130b2565b634e487b7160e01b600052601160045260246000fd5b60006000198214156135a9576135a961357f565b5060010190565b600082198211156135c3576135c361357f565b500190565b600181811c908216806135dc57607f821691505b602082108114156135fd57634e487b7160e01b600052602260045260246000fd5b50919050565b815160009082906020808601845b8381101561362d57815185529382019390820190600101613611565b50929695505050505050565b815160009082906020808601845b8381101561362d5781516001600160a01b031685529382019390820190600101613647565b602081526000612ce8602083018461315d565b72021b432b9ba2437b63232b91d103a37b5b2b71606d1b8152600082516136ad816013850160208701613086565b7f206973206e6f74206120736d61727420636f6e747261637400000000000000006013939091019283015250602b01919050565b72021b432b9ba2437b63232b91d103a37b5b2b71606d1b81526000825161370f816013850160208701613086565b7f206973206e6f7420737570706f727465642e204f6e6c792045524332302c20376013939091019283015250720c8c4b080c4c4d4d481a5cc8185b1b1bddd959606a1b6033820152604601919050565b6c021b432b9ba1d103a37b5b2b71609d1b81526000835161378781600d850160208801613086565b62034b2160ed1b600d9184019182015283516137aa816010840160208801613086565b6137b86010828401016134fb565b9695505050505050565b7f43686573743a20416d6f756e74206f6620746f6b656e200000000000000000008152600083516137fa816017850160208801613086565b62034b2160ed1b601791840191820152835161381d81601a840160208801613086565b7f206578636565642074686520616d6f756e742070726573656e7420696e207468601a929091019182015266194818da195cdd60ca1b603a820152604101949350505050565b6000828210156138755761387561357f565b500390565b634e487b7160e01b600052603160045260246000fd5b6000602082840312156138a257600080fd5b815160ff81168114612ce857600080fd5b634e487b7160e01b600052601260045260246000fd5b6000826138d8576138d86138b3565b500490565b6000826138ec576138ec6138b3565b500690565b600081600019048311821515161561390b5761390b61357f565b500290565b60008161391f5761391f61357f565b50600019019056fec2575a0e9e593c00f959f8c92f12db2869c3395a3b0502d05e2516446f71f85ba26469706673582212209b87587a5276181d0e8a266cf4300f67a7208a5341349ee3a616aa6a3efe86a164736f6c63430008090033",
  "linkReferences": {},
  "deployedLinkReferences": {}
}